{
  "_format": "hh-sol-artifact-1",
  "contractName": "Ballot",
  "sourceName": "contracts/Ballot.sol",
  "abi": [
    {
      "inputs": [],
      "stateMutability": "nonpayable",
      "type": "constructor"
    },
    {
      "anonymous": false,
      "inputs": [
        {
          "indexed": false,
          "internalType": "string",
          "name": "name",
          "type": "string"
        }
      ],
      "name": "NewProposal",
      "type": "event"
    },
    {
      "inputs": [],
      "name": "DAOOwner",
      "outputs": [
        {
          "internalType": "address",
          "name": "",
          "type": "address"
        }
      ],
      "stateMutability": "view",
      "type": "function"
    },
    {
      "inputs": [
        {
          "internalType": "string",
          "name": "no",
          "type": "string"
        }
      ],
      "name": "getNoCount",
      "outputs": [
        {
          "internalType": "uint256",
          "name": "",
          "type": "uint256"
        }
      ],
      "stateMutability": "view",
      "type": "function"
    },
    {
      "inputs": [
        {
          "internalType": "string",
          "name": "yes",
          "type": "string"
        }
      ],
      "name": "getYesCount",
      "outputs": [
        {
          "internalType": "uint256",
          "name": "",
          "type": "uint256"
        }
      ],
      "stateMutability": "view",
      "type": "function"
    },
    {
      "inputs": [],
      "name": "proposal",
      "outputs": [
        {
          "internalType": "string",
          "name": "",
          "type": "string"
        }
      ],
      "stateMutability": "view",
      "type": "function"
    },
    {
      "inputs": [
        {
          "internalType": "string",
          "name": "_proposal",
          "type": "string"
        }
      ],
      "name": "setProposal",
      "outputs": [],
      "stateMutability": "nonpayable",
      "type": "function"
    },
    {
      "inputs": [
        {
          "internalType": "string",
          "name": "no",
          "type": "string"
        }
      ],
      "name": "voteNo",
      "outputs": [],
      "stateMutability": "nonpayable",
      "type": "function"
    },
    {
      "inputs": [
        {
          "internalType": "string",
          "name": "yes",
          "type": "string"
        }
      ],
      "name": "voteYes",
      "outputs": [],
      "stateMutability": "nonpayable",
      "type": "function"
    }
  ],
  "bytecode": "0x608060405234801561001057600080fd5b50336000806101000a81548173ffffffffffffffffffffffffffffffffffffffff021916908373ffffffffffffffffffffffffffffffffffffffff160217905550610823806100606000396000f3fe608060405234801561001057600080fd5b506004361061007d5760003560e01c8063753ec1031161005b578063753ec103146100d8578063c31ad7dc146100f6578063c661592b14610112578063d5710ecf146101425761007d565b80630242fc6214610082578063722047131461009e578063745fd751146100bc575b600080fd5b61009c60048036038101906100979190610496565b610172565b005b6100a66101a9565b6040516100b39190610576565b60405180910390f35b6100d660048036038101906100d19190610496565b6101cd565b005b6100e0610276565b6040516100ed9190610591565b60405180910390f35b610110600480360381019061010b9190610496565b610304565b005b61012c60048036038101906101279190610496565b61033b565b60405161013991906105b3565b60405180910390f35b61015c60048036038101906101579190610496565b610363565b60405161016991906105b3565b60405180910390f35b600381604051610182919061055f565b908152602001604051809103902060008154809291906101a190610706565b919050555050565b60008054906101000a900473ffffffffffffffffffffffffffffffffffffffff1681565b60008054906101000a900473ffffffffffffffffffffffffffffffffffffffff1673ffffffffffffffffffffffffffffffffffffffff163373ffffffffffffffffffffffffffffffffffffffff161461022557600080fd5b806001908051906020019061023b92919061038b565b507f86d8e0967ea6ac45a69b8f37bf082848c2027d16f550f0a91dda28e6309fedb18160405161026b9190610591565b60405180910390a150565b60018054610283906106d4565b80601f01602080910402602001604051908101604052809291908181526020018280546102af906106d4565b80156102fc5780601f106102d1576101008083540402835291602001916102fc565b820191906000526020600020905b8154815290600101906020018083116102df57829003601f168201915b505050505081565b600281604051610314919061055f565b9081526020016040518091039020600081548092919061033390610706565b919050555050565b600060038260405161034d919061055f565b9081526020016040518091039020549050919050565b6000600282604051610375919061055f565b9081526020016040518091039020549050919050565b828054610397906106d4565b90600052602060002090601f0160209004810192826103b95760008555610400565b82601f106103d257805160ff1916838001178555610400565b82800160010185558215610400579182015b828111156103ff5782518255916020019190600101906103e4565b5b50905061040d9190610411565b5090565b5b8082111561042a576000816000905550600101610412565b5090565b600061044161043c846105ff565b6105ce565b90508281526020810184848401111561045957600080fd5b610464848285610692565b509392505050565b600082601f83011261047d57600080fd5b813561048d84826020860161042e565b91505092915050565b6000602082840312156104a857600080fd5b600082013567ffffffffffffffff8111156104c257600080fd5b6104ce8482850161046c565b91505092915050565b6104e081610656565b82525050565b60006104f18261062f565b6104fb818561063a565b935061050b8185602086016106a1565b610514816107dc565b840191505092915050565b600061052a8261062f565b610534818561064b565b93506105448185602086016106a1565b80840191505092915050565b61055981610688565b82525050565b600061056b828461051f565b915081905092915050565b600060208201905061058b60008301846104d7565b92915050565b600060208201905081810360008301526105ab81846104e6565b905092915050565b60006020820190506105c86000830184610550565b92915050565b6000604051905081810181811067ffffffffffffffff821117156105f5576105f46107ad565b5b8060405250919050565b600067ffffffffffffffff82111561061a576106196107ad565b5b601f19601f8301169050602081019050919050565b600081519050919050565b600082825260208201905092915050565b600081905092915050565b600061066182610668565b9050919050565b600073ffffffffffffffffffffffffffffffffffffffff82169050919050565b6000819050919050565b82818337600083830152505050565b60005b838110156106bf5780820151818401526020810190506106a4565b838111156106ce576000848401525b50505050565b600060028204905060018216806106ec57607f821691505b60208210811415610700576106ff61077e565b5b50919050565b600061071182610688565b91507fffffffffffffffffffffffffffffffffffffffffffffffffffffffffffffffff8214156107445761074361074f565b5b600182019050919050565b7f4e487b7100000000000000000000000000000000000000000000000000000000600052601160045260246000fd5b7f4e487b7100000000000000000000000000000000000000000000000000000000600052602260045260246000fd5b7f4e487b7100000000000000000000000000000000000000000000000000000000600052604160045260246000fd5b6000601f19601f830116905091905056fea264697066735822122026309046d2d61a15f885816edd6a787cb976f788dff4160a66bb7dfb8d08a5e964736f6c63430008000033",
  "linkReferences": {},
  "deployedLinkReferences": {}
}