{
  "_format": "hh-sol-artifact-1",
  "contractName": "Ballot",
  "sourceName": "contracts/Ballot.sol",
  "abi": [
    {
      "inputs": [],
      "stateMutability": "nonpayable",
      "type": "constructor"
    },
    {
      "anonymous": false,
      "inputs": [
        {
          "indexed": false,
          "internalType": "string",
          "name": "name",
          "type": "string"
        }
      ],
      "name": "NewProposal",
      "type": "event"
    },
    {
      "anonymous": false,
      "inputs": [
        {
          "indexed": false,
          "internalType": "address",
          "name": "voter",
          "type": "address"
        }
      ],
      "name": "votedNo",
      "type": "event"
    },
    {
      "anonymous": false,
      "inputs": [
        {
          "indexed": false,
          "internalType": "address",
          "name": "voter",
          "type": "address"
        }
      ],
      "name": "votedYes",
      "type": "event"
    },
    {
      "inputs": [],
      "name": "DAOOwner",
      "outputs": [
        {
          "internalType": "address",
          "name": "",
          "type": "address"
        }
      ],
      "stateMutability": "view",
      "type": "function"
    },
    {
      "inputs": [],
      "name": "getNoCount",
      "outputs": [
        {
          "internalType": "uint256",
          "name": "",
          "type": "uint256"
        }
      ],
      "stateMutability": "view",
      "type": "function"
    },
    {
      "inputs": [],
      "name": "getYesCount",
      "outputs": [
        {
          "internalType": "uint256",
          "name": "",
          "type": "uint256"
        }
      ],
      "stateMutability": "view",
      "type": "function"
    },
    {
      "inputs": [],
      "name": "proposal",
      "outputs": [
        {
          "internalType": "string",
          "name": "",
          "type": "string"
        }
      ],
      "stateMutability": "view",
      "type": "function"
    },
    {
      "inputs": [
        {
          "internalType": "string",
          "name": "_proposal",
          "type": "string"
        }
      ],
      "name": "setProposal",
      "outputs": [],
      "stateMutability": "nonpayable",
      "type": "function"
    },
    {
      "inputs": [],
      "name": "voteNo",
      "outputs": [],
      "stateMutability": "nonpayable",
      "type": "function"
    },
    {
      "inputs": [],
      "name": "voteYes",
      "outputs": [],
      "stateMutability": "nonpayable",
      "type": "function"
    }
  ],
  "bytecode": "0x608060405234801561001057600080fd5b5033600260006101000a81548173ffffffffffffffffffffffffffffffffffffffff021916908373ffffffffffffffffffffffffffffffffffffffff160217905550610782806100616000396000f3fe608060405234801561001057600080fd5b506004361061007d5760003560e01c8063745fd7511161005b578063745fd751146100c8578063753ec103146100e457806390cf581c14610102578063dbfb1f8a1461010c5761007d565b80633722b0de1461008257806341c12a70146100a057806372204713146100aa575b600080fd5b61008a61012a565b604051610097919061051d565b60405180910390f35b6100a8610134565b005b6100b2610185565b6040516100bf91906104e0565b60405180910390f35b6100e260048036038101906100dd9190610448565b6101ab565b005b6100ec610256565b6040516100f991906104fb565b60405180910390f35b61010a6102e4565b005b610114610334565b604051610121919061051d565b60405180910390f35b6000600154905090565b6001600081548092919061014790610665565b91905055507f5351a3c86fd85f065604ddd559e2f496503c6e4d5e1aae7d7a4c8fde1874414c3360405161017b91906104e0565b60405180910390a1565b600260009054906101000a900473ffffffffffffffffffffffffffffffffffffffff1681565b600260009054906101000a900473ffffffffffffffffffffffffffffffffffffffff1673ffffffffffffffffffffffffffffffffffffffff163373ffffffffffffffffffffffffffffffffffffffff161461020557600080fd5b806003908051906020019061021b92919061033d565b507f86d8e0967ea6ac45a69b8f37bf082848c2027d16f550f0a91dda28e6309fedb18160405161024b91906104fb565b60405180910390a150565b6003805461026390610633565b80601f016020809104026020016040519081016040528092919081815260200182805461028f90610633565b80156102dc5780601f106102b1576101008083540402835291602001916102dc565b820191906000526020600020905b8154815290600101906020018083116102bf57829003601f168201915b505050505081565b6000808154809291906102f690610665565b91905055507f655b737f1eeecd069d10fb0ed2023988247f3bab1e679b4276a968982668e5b33360405161032a91906104e0565b60405180910390a1565b60008054905090565b82805461034990610633565b90600052602060002090601f01602090048101928261036b57600085556103b2565b82601f1061038457805160ff19168380011785556103b2565b828001600101855582156103b2579182015b828111156103b1578251825591602001919060010190610396565b5b5090506103bf91906103c3565b5090565b5b808211156103dc5760008160009055506001016103c4565b5090565b60006103f36103ee84610569565b610538565b90508281526020810184848401111561040b57600080fd5b6104168482856105f1565b509392505050565b600082601f83011261042f57600080fd5b813561043f8482602086016103e0565b91505092915050565b60006020828403121561045a57600080fd5b600082013567ffffffffffffffff81111561047457600080fd5b6104808482850161041e565b91505092915050565b610492816105b5565b82525050565b60006104a382610599565b6104ad81856105a4565b93506104bd818560208601610600565b6104c68161073b565b840191505092915050565b6104da816105e7565b82525050565b60006020820190506104f56000830184610489565b92915050565b600060208201905081810360008301526105158184610498565b905092915050565b600060208201905061053260008301846104d1565b92915050565b6000604051905081810181811067ffffffffffffffff8211171561055f5761055e61070c565b5b8060405250919050565b600067ffffffffffffffff8211156105845761058361070c565b5b601f19601f8301169050602081019050919050565b600081519050919050565b600082825260208201905092915050565b60006105c0826105c7565b9050919050565b600073ffffffffffffffffffffffffffffffffffffffff82169050919050565b6000819050919050565b82818337600083830152505050565b60005b8381101561061e578082015181840152602081019050610603565b8381111561062d576000848401525b50505050565b6000600282049050600182168061064b57607f821691505b6020821081141561065f5761065e6106dd565b5b50919050565b6000610670826105e7565b91507fffffffffffffffffffffffffffffffffffffffffffffffffffffffffffffffff8214156106a3576106a26106ae565b5b600182019050919050565b7f4e487b7100000000000000000000000000000000000000000000000000000000600052601160045260246000fd5b7f4e487b7100000000000000000000000000000000000000000000000000000000600052602260045260246000fd5b7f4e487b7100000000000000000000000000000000000000000000000000000000600052604160045260246000fd5b6000601f19601f830116905091905056fea2646970667358221220430e598efcb85178cc941ca413336767781f0de55b60e9f5c3313e44617e419c64736f6c63430008000033",
  "linkReferences": {},
  "deployedLinkReferences": {}
}